{"abi":[{"type":"constructor","inputs":[{"name":"_usdc","type":"address","internalType":"address"}],"stateMutability":"nonpayable"},{"type":"function","name":"USDC","inputs":[],"outputs":[{"name":"","type":"address","internalType":"contract IERC20"}],"stateMutability":"view"},{"type":"function","name":"createGame","inputs":[{"name":"gameId","type":"bytes32","internalType":"bytes32"}],"outputs":[],"stateMutability":"nonpayable"},{"type":"function","name":"depositETH","inputs":[{"name":"gameId","type":"bytes32","internalType":"bytes32"}],"outputs":[],"stateMutability":"payable"},{"type":"function","name":"depositUSDC","inputs":[{"name":"gameId","type":"bytes32","internalType":"bytes32"},{"name":"amount","type":"uint256","internalType":"uint256"}],"outputs":[],"stateMutability":"nonpayable"},{"type":"function","name":"distributePayout","inputs":[{"name":"gameId","type":"bytes32","internalType":"bytes32"},{"name":"players","type":"address[]","internalType":"address[]"},{"name":"usdcAmounts","type":"uint256[]","internalType":"uint256[]"},{"name":"ethAmounts","type":"uint256[]","internalType":"uint256[]"}],"outputs":[],"stateMutability":"nonpayable"},{"type":"function","name":"games","inputs":[{"name":"","type":"bytes32","internalType":"bytes32"}],"outputs":[{"name":"host","type":"address","internalType":"address"},{"name":"usdcBalance","type":"uint256","internalType":"uint256"},{"name":"ethBalance","type":"uint256","internalType":"uint256"},{"name":"exists","type":"bool","internalType":"bool"}],"stateMutability":"view"},{"type":"function","name":"getGame","inputs":[{"name":"gameId","type":"bytes32","internalType":"bytes32"}],"outputs":[{"name":"host","type":"address","internalType":"address"},{"name":"usdcBalance","type":"uint256","internalType":"uint256"},{"name":"ethBalance","type":"uint256","internalType":"uint256"},{"name":"exists","type":"bool","internalType":"bool"}],"stateMutability":"view"},{"type":"event","name":"ETHDeposited","inputs":[{"name":"gameId","type":"bytes32","indexed":true,"internalType":"bytes32"},{"name":"player","type":"address","indexed":true,"internalType":"address"},{"name":"amount","type":"uint256","indexed":false,"internalType":"uint256"}],"anonymous":false},{"type":"event","name":"GameCreated","inputs":[{"name":"gameId","type":"bytes32","indexed":true,"internalType":"bytes32"},{"name":"host","type":"address","indexed":true,"internalType":"address"}],"anonymous":false},{"type":"event","name":"PayoutDistributed","inputs":[{"name":"gameId","type":"bytes32","indexed":true,"internalType":"bytes32"},{"name":"player","type":"address","indexed":true,"internalType":"address"},{"name":"usdcAmount","type":"uint256","indexed":false,"internalType":"uint256"},{"name":"ethAmount","type":"uint256","indexed":false,"internalType":"uint256"}],"anonymous":false},{"type":"event","name":"USDCDeposited","inputs":[{"name":"gameId","type":"bytes32","indexed":true,"internalType":"bytes32"},{"name":"player","type":"address","indexed":true,"internalType":"address"},{"name":"amount","type":"uint256","indexed":false,"internalType":"uint256"}],"anonymous":false},{"type":"error","name":"ArrayLengthMismatch","inputs":[]},{"type":"error","name":"GameAlreadyExists","inputs":[]},{"type":"error","name":"GameDoesNotExist","inputs":[]},{"type":"error","name":"InsufficientBalance","inputs":[]},{"type":"error","name":"InvalidAmount","inputs":[]},{"type":"error","name":"OnlyHost","inputs":[]},{"type":"error","name":"SafeERC20FailedOperation","inputs":[{"name":"token","type":"address","internalType":"address"}]},{"type":"error","name":"TransferFailed","inputs":[]}],"bytecode":{"object":"0x60a060405234801561000f575f5ffd5b5060405161144238038061144283398181016040528101906100319190610117565b5f73ffffffffffffffffffffffffffffffffffffffff168173ffffffffffffffffffffffffffffffffffffffff161461006a5780610080565b73833589fcd6edb6e08f4c7c32d4f71b54bda029135b73ffffffffffffffffffffffffffffffffffffffff1660808173ffffffffffffffffffffffffffffffffffffffff168152505050610142565b5f5ffd5b5f73ffffffffffffffffffffffffffffffffffffffff82169050919050565b5f6100e6826100bd565b9050919050565b6100f6816100dc565b8114610100575f5ffd5b50565b5f81519050610111816100ed565b92915050565b5f6020828403121561012c5761012b6100b9565b5b5f61013984828501610103565b91505092915050565b6080516112da6101685f395f818161049801528181610532015261092c01526112da5ff3fe60806040526004361061006f575f3560e01c806389a302711161004d57806389a3027114610102578063d68d9d4e1461012c578063e8ed9e5614610148578063f579f882146101705761006f565b8063457391e51461007357806373931bbf1461009b5780637c34c355146100da575b5f5ffd5b34801561007e575f5ffd5b5061009960048036038101906100949190610d64565b6101af565b005b3480156100a6575f5ffd5b506100c160048036038101906100bc9190610d64565b610311565b6040516100d19493929190610e00565b60405180910390f35b3480156100e5575f5ffd5b5061010060048036038101906100fb9190610e6d565b6103d8565b005b34801561010d575f5ffd5b50610116610530565b6040516101239190610f06565b60405180910390f35b61014660048036038101906101419190610d64565b610554565b005b348015610153575f5ffd5b5061016e60048036038101906101699190610fd5565b61065e565b005b34801561017b575f5ffd5b5061019660048036038101906101919190610d64565b610b37565b6040516101a69493929190610e00565b60405180910390f35b5f5f8281526020019081526020015f206003015f9054906101000a900460ff1615610206576040517f0ab805f900000000000000000000000000000000000000000000000000000000815260040160405180910390fd5b60405180608001604052803373ffffffffffffffffffffffffffffffffffffffff1681526020015f81526020015f8152602001600115158152505f5f8381526020019081526020015f205f820151815f015f6101000a81548173ffffffffffffffffffffffffffffffffffffffff021916908373ffffffffffffffffffffffffffffffffffffffff16021790555060208201518160010155604082015181600201556060820151816003015f6101000a81548160ff0219169083151502179055509050503373ffffffffffffffffffffffffffffffffffffffff16817fdb39b7323105b04a697f43db521ca7e936b02b98992c04ce3bbfa4a59d789ff660405160405180910390a350565b5f5f5f5f5f5f5f8781526020019081526020015f206040518060800160405290815f82015f9054906101000a900473ffffffffffffffffffffffffffffffffffffffff1673ffffffffffffffffffffffffffffffffffffffff1673ffffffffffffffffffffffffffffffffffffffff1681526020016001820154815260200160028201548152602001600382015f9054906101000a900460ff1615151515815250509050805f01518160200151826040015183606001519450945094509450509193509193565b5f5f8381526020019081526020015f206003015f9054906101000a900460ff1661042e576040517f1fedf07500000000000000000000000000000000000000000000000000000000815260040160405180910390fd5b5f8103610467576040517f2c5211c600000000000000000000000000000000000000000000000000000000815260040160405180910390fd5b805f5f8481526020019081526020015f206001015f82825461048991906110c6565b925050819055506104dd3330837f000000000000000000000000000000000000000000000000000000000000000073ffffffffffffffffffffffffffffffffffffffff16610b8d909392919063ffffffff16565b3373ffffffffffffffffffffffffffffffffffffffff16827f8f5781fdb49be2343ca56c67e0fa09ece1a4887afb22f1edccd90c3632601c878360405161052491906110f9565b60405180910390a35050565b7f000000000000000000000000000000000000000000000000000000000000000081565b5f5f8281526020019081526020015f206003015f9054906101000a900460ff166105aa576040517f1fedf07500000000000000000000000000000000000000000000000000000000815260040160405180910390fd5b5f34036105e3576040517f2c5211c600000000000000000000000000000000000000000000000000000000815260040160405180910390fd5b345f5f8381526020019081526020015f206002015f82825461060591906110c6565b925050819055503373ffffffffffffffffffffffffffffffffffffffff16817f8534743902a2fb19639aba9d7882a1a9b06d7a841874192da0738ce3973db0ae3460405161065391906110f9565b60405180910390a350565b5f5f5f8981526020019081526020015f209050806003015f9054906101000a900460ff166106b8576040517f1fedf07500000000000000000000000000000000000000000000000000000000815260040160405180910390fd5b805f015f9054906101000a900473ffffffffffffffffffffffffffffffffffffffff1673ffffffffffffffffffffffffffffffffffffffff163373ffffffffffffffffffffffffffffffffffffffff161461073e576040517e1e923600000000000000000000000000000000000000000000000000000000815260040160405180910390fd5b84849050878790501415806107595750828290508787905014155b15610790576040517fa24a13a600000000000000000000000000000000000000000000000000000000815260040160405180910390fd5b5f5f90505f5f90505f5f90505b89899050811015610803578787828181106107bb576107ba611112565b5b90506020020135836107cd91906110c6565b92508585828181106107e2576107e1611112565b5b90506020020135826107f491906110c6565b9150808060010191505061079d565b508260010154821115610842576040517ff4d678b800000000000000000000000000000000000000000000000000000000815260040160405180910390fd5b8260020154811115610880576040517ff4d678b800000000000000000000000000000000000000000000000000000000815260040160405180910390fd5b81836001015f828254610893919061113f565b9250508190555080836002015f8282546108ad919061113f565b925050819055505f5f90505b89899050811015610b2a575f8888838181106108d8576108d7611112565b5b905060200201351115610971576109708a8a838181106108fb576108fa611112565b5b9050602002016020810190610910919061119c565b89898481811061092357610922611112565b5b905060200201357f000000000000000000000000000000000000000000000000000000000000000073ffffffffffffffffffffffffffffffffffffffff16610c0f9092919063ffffffff16565b5b5f86868381811061098557610984611112565b5b905060200201351115610a73575f8a8a838181106109a6576109a5611112565b5b90506020020160208101906109bb919061119c565b73ffffffffffffffffffffffffffffffffffffffff168787848181106109e4576109e3611112565b5b905060200201356040516109f7906111f4565b5f6040518083038185875af1925050503d805f8114610a31576040519150601f19603f3d011682016040523d82523d5f602084013e610a36565b606091505b5050905080610a71576040517f90b8ec1800000000000000000000000000000000000000000000000000000000815260040160405180910390fd5b505b898982818110610a8657610a85611112565b5b9050602002016020810190610a9b919061119c565b73ffffffffffffffffffffffffffffffffffffffff168b7f64f8abb0f8f1160392359fc39ffc82e40dc80ed5f865b35479a7916ae71ee1c98a8a85818110610ae657610ae5611112565b5b90506020020135898986818110610b0057610aff611112565b5b90506020020135604051610b15929190611208565b60405180910390a380806001019150506108b9565b5050505050505050505050565b5f602052805f5260405f205f91509050805f015f9054906101000a900473ffffffffffffffffffffffffffffffffffffffff1690806001015490806002015490806003015f9054906101000a900460ff16905084565b610c09848573ffffffffffffffffffffffffffffffffffffffff166323b872dd868686604051602401610bc29392919061122f565b604051602081830303815290604052915060e01b6020820180517bffffffffffffffffffffffffffffffffffffffffffffffffffffffff8381831617835250505050610c8e565b50505050565b610c89838473ffffffffffffffffffffffffffffffffffffffff1663a9059cbb8585604051602401610c42929190611264565b604051602081830303815290604052915060e01b6020820180517bffffffffffffffffffffffffffffffffffffffffffffffffffffffff8381831617835250505050610c8e565b505050565b5f5f60205f8451602086015f885af180610cad576040513d5f823e3d81fd5b3d92505f519150505f8214610cc6576001811415610ce1565b5f8473ffffffffffffffffffffffffffffffffffffffff163b145b15610d2357836040517f5274afe7000000000000000000000000000000000000000000000000000000008152600401610d1a919061128b565b60405180910390fd5b50505050565b5f5ffd5b5f5ffd5b5f819050919050565b610d4381610d31565b8114610d4d575f5ffd5b50565b5f81359050610d5e81610d3a565b92915050565b5f60208284031215610d7957610d78610d29565b5b5f610d8684828501610d50565b91505092915050565b5f73ffffffffffffffffffffffffffffffffffffffff82169050919050565b5f610db882610d8f565b9050919050565b610dc881610dae565b82525050565b5f819050919050565b610de081610dce565b82525050565b5f8115159050919050565b610dfa81610de6565b82525050565b5f608082019050610e135f830187610dbf565b610e206020830186610dd7565b610e2d6040830185610dd7565b610e3a6060830184610df1565b95945050505050565b610e4c81610dce565b8114610e56575f5ffd5b50565b5f81359050610e6781610e43565b92915050565b5f5f60408385031215610e8357610e82610d29565b5b5f610e9085828601610d50565b9250506020610ea185828601610e59565b9150509250929050565b5f819050919050565b5f610ece610ec9610ec484610d8f565b610eab565b610d8f565b9050919050565b5f610edf82610eb4565b9050919050565b5f610ef082610ed5565b9050919050565b610f0081610ee6565b82525050565b5f602082019050610f195f830184610ef7565b92915050565b5f5ffd5b5f5ffd5b5f5ffd5b5f5f83601f840112610f4057610f3f610f1f565b5b8235905067ffffffffffffffff811115610f5d57610f5c610f23565b5b602083019150836020820283011115610f7957610f78610f27565b5b9250929050565b5f5f83601f840112610f9557610f94610f1f565b5b8235905067ffffffffffffffff811115610fb257610fb1610f23565b5b602083019150836020820283011115610fce57610fcd610f27565b5b9250929050565b5f5f5f5f5f5f5f6080888a031215610ff057610fef610d29565b5b5f610ffd8a828b01610d50565b975050602088013567ffffffffffffffff81111561101e5761101d610d2d565b5b61102a8a828b01610f2b565b9650965050604088013567ffffffffffffffff81111561104d5761104c610d2d565b5b6110598a828b01610f80565b9450945050606088013567ffffffffffffffff81111561107c5761107b610d2d565b5b6110888a828b01610f80565b925092505092959891949750929550565b7f4e487b71000000000000000000000000000000000000000000000000000000005f52601160045260245ffd5b5f6110d082610dce565b91506110db83610dce565b92508282019050808211156110f3576110f2611099565b5b92915050565b5f60208201905061110c5f830184610dd7565b92915050565b7f4e487b71000000000000000000000000000000000000000000000000000000005f52603260045260245ffd5b5f61114982610dce565b915061115483610dce565b925082820390508181111561116c5761116b611099565b5b92915050565b61117b81610dae565b8114611185575f5ffd5b50565b5f8135905061119681611172565b92915050565b5f602082840312156111b1576111b0610d29565b5b5f6111be84828501611188565b91505092915050565b5f81905092915050565b50565b5f6111df5f836111c7565b91506111ea826111d1565b5f82019050919050565b5f6111fe826111d4565b9150819050919050565b5f60408201905061121b5f830185610dd7565b6112286020830184610dd7565b9392505050565b5f6060820190506112425f830186610dbf565b61124f6020830185610dbf565b61125c6040830184610dd7565b949350505050565b5f6040820190506112775f830185610dbf565b6112846020830184610dd7565b9392505050565b5f60208201905061129e5f830184610dbf565b9291505056fea26469706673582212204f4f5d5ca9d37c4eb172feb5c331c10df05802176c1f90810fc1f2655083caee64736f6c634300081e0033","linkReferences":{}},"methodIdentifiers":{"USDC()":"89a30271","createGame(bytes32)":"457391e5","depositETH(bytes32)":"d68d9d4e","depositUSDC(bytes32,uint256)":"7c34c355","distributePayout(bytes32,address[],uint256[],uint256[])":"e8ed9e56","games(bytes32)":"f579f882","getGame(bytes32)":"73931bbf"},"id":29}